:020000040800F2
:10000000A86502246903000807760008B374000895
:1000100005760008B50B00080D86000800000000FA
:10002000000000000000000000000000AD02000819
:100030008D0E00080000000001030008FD8000088C
:100040008303000883030008830300088303000878
:100050008303000883030008830300088303000868
:100060008303000883030008830300088303000858
:100070008303000883030008830300088303000848
:1000800083030008830300088303000809140008A1
:10009000830300088303000883030008AD130008EE
:1000A0008303000883030008830300088303000818
:1000B0008303000883030008830300088303000808
:1000C000830300088303000883030008557E0008AB
:1000D0008303000883030008830300088985000860
:1000E000A513000883030008000000008303000834
:1000F00083030008830300088303000883030008C8
:1001000083030008830300088303000883030008B7
:1001100083030008830300088303000883030008A7
:100120008303000883030008090C0008150C00086D
:1001300083030008B10E000883030008830300084E
:1001400000000000000000000000000000000000AF
:100150008303000883030008210C000883030008C0
:100160008303000883030008830300088303000857
:1001700083030008830300088303000800000000D5
:100180008303000883030008830300088303000837
:100190008303000883030008830300088303000827
:1001A0008303000883030008830300088303000817
:1001B0008303000883030008830300088303000807
:1001C00083030008830300088303000883030008F7
:1001D00083030008830300088303000883030008E7
:1001E00083030008830300088303000883030008D7
:1001F00083030008830300088303000883030008C7
:1002000083030008830300088303000883030008B6
:1002100083030008830300088303000883030008A6
:1002200083030008830300082D7500080000000008
:100230008303000883030008000000008303000814
:100240008303000883030008830300088303000876
:100250008303000883030008830300088303000866
:100260008303000883030008830300088303000856
:1002700083030008830300088303000800000000D4
:1002800083030008830300088303000800000000C4
:100290000000000083030008DFF80CD000F018F91C
:1002A00000480047B1DB0008A86502242B4B196801
:1002B0000868B0E8F04F80F30988BFF36F8F4FF004
:1002C000000080F3118870470000000006480068B5
:1002D000006880F3088862B661B6BFF34F8FBFF342
:1002E0006F8F00DF00BF00BF08ED00E0DFF80C00FB
:1002F000016841F470010160704700BF88ED00E0C3
:10030000EFF30980BFF36F8F144B1A681EF0100FC4
:1003100008BF20ED108A20E9F04F106008B44FF0BC
:10032000500072B680F31188BFF34F8FBFF36F8F09
:1003300062B615F04FFD4FF0000080F3118808BC45
:1003400019680868B0E8F04F1EF0100F08BFB0EC55
:10035000108A80F30988BFF36F8F7047343300240D
:10036000EFF30580704700000648804706480047C5
:10037000FEE7FEE7FEE7FEE7FEE7FEE7FEE7FEE755
:10038000FEE7FEE72D810008990200082DE9F05FE5
:100390000546002092469B468846064681464024F4
:1003A0001BE0284641464746224600F081F8534666
:1003B0005A46C01A914110D311461846224600F001
:1003C00068F82D1A67EB01084F46224601200021EC
:1003D00000F05FF817EB00094E41201EA4F1010464
:1003E000DFDC484631462A464346BDE8F09F000020
:1003F0000649074A0868504343F23902104408602E
:100400004008704701490860704700009434002498
:100410006D4EC64110B5431A934209D2831888180D
:1004200003E010F8011D03F8011D521EF9D210BDA2
:1004300040EA01039B0703D009E008C9121F08C066
:10044000042AFAD203E011F8013B00F8013B521EE6
:10045000F9D210BDD2B201E000F8012B491EFBD247
:1004600070470022F6E710B513460A4604461946BF
:10047000FFF7F0FF204610BD30B5044600200346CC
:1004800000E05B1C934203D2E05CCD5C401BF8D0E3
:1004900030BD202A04DB203A00FA02F10020704728
:1004A0009140C2F1200320FA03F3194390407047B2
:1004B000202A04DB203A21FA02F00021704721FAB9
:1004C00002F3D040C2F12002914008431946704720
:1004D000064C074D06E0E06840F0010394E8070091
:1004E00098471034AC42F6D3FFF7DAFE40720108A9
:1004F0006072010870B58C1810F8015B15F00703E5
:1005000001D110F8013B2A1106D110F8012B03E0AC
:1005100010F8016B01F8016B5B1EF9D12B0705D4B4
:100520000023521E0DD401F8013BFAE710F8013BFD
:10053000CB1A921C03E013F8015B01F8015B521E19
:10054000F9D5A142D8D3002070BD000070B582B0AB
:1005500042F21071154D0446154E4FF47A70CDE9F4
:10056000000103232A460121304609F075F811499C
:1005700002204FF0010C0304C1F800C00B60C2035D
:1005800008600860086008600B600A600A600A6022
:10059000C1F800C041F2883003232A460121CDE989
:1005A0000040304609F058F802B070BD0004004029
:1005B00000040258180402584DF804ED83B042F2CA
:1005C00010714FF47A70074A0323CDE90001064801
:1005D000012109F041F805490120086003B05DF8E8
:1005E00004FB0000000400400004025818040258F4
:1005F0002DED028B82B09FEDD40ADFF858B30124B1
:10060000D24D0020D2490BF120088DED000A4FF4A5
:100610000042A8F1900ADFEDD00AD04BA8F14006C5
:100620009FEDCF8A4A60B5F84C1100914FF0005C05
:10063000CC4F002146F820C007F1900203EB800C5C
:10064000A2F1D0094BF8201048F820108CED800A58
:1006500049F820104AF82010A2F5A07909F80010F6
:10066000A2F1B00905EB800E49F8201007EB8009D4
:1006700047F82010C9F83010C9F8601002EB800963
:1006800042F82010401CC9F830100828C9F8601042
:100690000CF500699EED181AC0EE811AC9ED161A04
:1006A000DEF8F4E1DDF80090B9FBFEF9CCF87091CA
:1006B000BCD3AD4800235A1E1946006815F0E2FC71
:1006C0000128F6D1DFF894E200200090A7480178D5
:1006D000009821FA00F010F0010F00F0EB80DFF835
:1006E00090C24FF48061A348DCF80060009A00EBF0
:1006F000023303EB4600BFF34F8F9F4A1060203058
:1007000020390029FADCBFF34F8FBFF36F8FDCF87D
:1007100000C0002700980099924AC6B203EB4C0330
:1007200001EB410102F19000C6EB061895F85C61FF
:1007300000EB011C02EB011208EB88000190002085
:10074000B3F9001005EB000898F84580B8F1010FE7
:100750000AD0B8F1040F7CD0B8F1000F04BFDFF865
:10076000F081C8F8041071E0DFF810A247F6FF78B6
:100770005AF8209089FB08894FEAD83848EA494856
:1007800018EB010905EB80084AF82090A1EBE9314C
:10079000D8F8F4A1BAF5C84F08BF00240DD0BAF5B7
:1007A000485F08BF012408D0BAF5C85F08BF02241B
:1007B00003D0BAF5486F08BF032452F820900EEB1F
:1007C000800A09F1010942F82090DAF870A1D145B8
:1007D0003CD300EE101A0021DFF8749142F820108B
:1007E000B8EEC00A98ED051AD9F80810D8ED3C1AF1
:1007F00060EE080A98ED240AE140012E10EE810A0D
:1008000000F0FF084CF8201020EE210A18BF022E3D
:1008100018D100BFD9F8009008EBC80B0BEB0818F3
:10082000C9EB491ACAEB092ADFF8549109EB4A3A95
:10083000DDF804900AEB493909EB483808EB8108E8
:1008400088ED000A01F101014CF8201000F10100CF
:1008500000E03DE0082803F10203FFF471AF3C48DB
:100860008168491C8160B1F5806F1FD30021CCF8ED
:100870000010CCF804104FF00108CCF80810CCF8A8
:100880000C10CCF81010CCF81410CCF81810CCF8D0
:100890001C10116051609160D160116151619161D2
:1008A000D1618160016828EA010101607F1C802F0D
:1008B000FFF445AF0098401C00900328FFF406AFFA
:1008C000304800231A461946006815F0BBFDF0E6D3
:1008D00005EB8008D8F8F481B8F5C84F08BF0024AC
:1008E0000DD0B8F5485F08BF012408D0B8F5C85F3F
:1008F00008BF022403D0B8F5486F08BF032452F89C
:1009000020800EEB800908F1010842F82080D9F818
:100910007091C8459AD3DFF838904FF0000800EE88
:10092000101A42F8208000F0FF08B8EEC00AD9F88B
:100930000810E14020EE080A012E4CF8201018BFE4
:10094000022E7FF47FAF65E700000000283000240E
:1009500084320024984E002400000047A034002474
:1009600000401C3E184F002420300024F93200249F
:100970000C330024000000245CEF00E0784E0024DB
:10098000000000C024300024DFF8C0C03048DCF88C
:100990000010036801F5807098421EBFB3F5827F96
:1009A0000020704730B52B4A89B02B491478B1F834
:1009B0004C01062C24BF09B030BDDFE804F003076A
:1009C000070D1E3D517819B1FFF7F6FD09B030BD96
:1009D000FFF7BCFD09B030BD2048002B017808BFEF
:1009E00041F0010104D0102B08BF41F0020100D1F9
:1009F00001700321017009B030BD194A8423040A33
:100A000013704FF4002350709470B1F82401D0702B
:100A1000010A1171DCF804100020CDE902030490F2
:100A2000CDE90010059069460690079008900D48A2
:100A300002F054FD09B030BDB2F80100A1F84C013C
:100A4000B2F80300A1F8240109B030BDA03400249D
:100A5000107700241033002428300024F9320024B9
:100A600018330024707600242DE9F04F4A49012301
:100A7000002085B0D1F800C00546484E074623EA5D
:100A80000C010090464A4FF0000BC1EB4113C3EB41
:100A900001213070708002EB4130039041480178B1
:100AA000009821FA00F010F0010F6BD03E484FF093
:100AB0000008D0F8F411002964D900993C4A3B4B56
:100AC000C1EB011401EB811C04EB8401009C02EBDF
:100AD0004409039A03EB0C1402EB413A0099C9B2A2
:100AE00002910099090A0191402222700020607051
:100AF0000421A170E1704FF0000E20716071029826
:100B0000A0710198E071B9F800002072010A6172C9
:100B100005EB4711082304EB0B000A300AEB8102B6
:100B20005B1E92ED000A02F54832BDEEC00A10EEDF
:100B3000101A01704FEA112C80F801C000F1020078
:100B4000EED13078691C0EF1010EBEF1400F0BF1B1
:100B5000100B00F108003070CDB2D9D3B9F8000005
:100B600000257F1C40F20A41401CA9F800002046E5
:100B700007F04EFD0C4808F12008AB46D0F8F40110
:100B80008045B1D30098401C80B20090032885D3E3
:100B900005B0BDE8F08F00008432002490320024BC
:100BA000000000C0F93200242830002498500024AE
:100BB0009C320024FEE7000070B506460F48104D39
:100BC0000024026842F0807202606C60286840F085
:100BD0000100286004F028FF0A49B0FBF1F06968C1
:100BE00000FB06F268688842FCD03ABFC943014462
:100BF000411A0C4401469442F4D370BDFCED00E070
:100C0000001000E040420F000148C06F00F016BE27
:100C1000F87400240148806F00F010BEF8740024BE
:100C2000014800F00BBE00006C700024244A0168EB
:100C300091421CBF234A91422CD0234A91421CBFAF
:100C4000224A914226D0224A91421CBF214A914217
:100C500020D0214A91421CBF204A91421AD0204AFA
:100C600091421CBF1F4A914214D01F4A91421CBF9F
:100C70001E4A91420ED01E4A91421CBF1D4A91420B
:100C800008D01D4A91421FBF1C4A914221F0FF012A
:100C9000816512D11A4ACBB2A3F110036FF3090197
:100CA000A2FB03324FEA1212032A02F00703154A8D
:100CB000D25CC26588BF091D816508467047000087
:100CC000100002402800024040000240580002404C
:100CD0007000024088000240A0000240B8000240BC
:100CE000100402402804024040040240580402401C
:100CF0007004024088040240A0040240B80402408C
:100D0000ABAAAAAA026F010830B4D0E9195C846DBD
:100D1000C5F804C0D0F86CC0BCF1000F1CBFD0E90E
:100D20001C5CC5F804C0414DD0F800C0AC451CBFE8
:100D30003F4DAC4529D03F4DAC451CBF3E4DAC4569
:100D400023D03E4DAC451CBF3D4DAC451DD03D4D67
:100D5000AC451CBF3C4DAC4517D03C4DAC451CBF11
:100D60003B4DAC4511D03B4DAC451CBF3A4DAC455D
:100D70000BD03A4DAC451CBF394DAC4505D0394D73
:100D8000AC451CBF384DAC4524D190F85C504FF0B9
:100D90003F0C05F01F050CFA05FCC4F808C0D0F89C
:100DA00000C0DCF8004024F48024CCF80040D0F8E7
:100DB00000C0CCF804308368402B05D103689A60EA
:100DC0000068C16030BC7047036899600068C26009
:100DD00030BC7047254DAC451CBF254DAC4512D0ED
:100DE000244DAC451CBF244DAC450CD0234DAC4527
:100DF0001CBF234DAC4506D0224DAC451FBF224D34
:100E0000AC4530BC704790F85C504FF0010C05F0D9
:100E10001F050CFA05FCC4F804C0D0F800C0CCF8DB
:100E200004308368402BCFD1C8E700001000024097
:100E3000280002404000024058000240700002407A
:100E400088000240A0000240B800024010040240A6
:100E5000280402404004024058040240700402404A
:100E600088040240A0040240B8040240085402581A
:100E70001C540258305402584454025858540258D2
:100E80006C54025880540258945402587047000021
:100E900010B5064C00224021204603F066FC0122DA
:100EA0002046BDE81040114603F05FBC0000025828
:100EB000502010B5EFF3118472B680F31188BFF3A0
:100EC0004F8FBFF36F8F62B6024801F065FD84F368
:100ED000118810BD005A02242DE9F003D0F828C073
:100EE00000F118068C684FF00008654656F82C3063
:100EF000DF6817F0004F40F012810F7817F0040FF1
:100F000034D0DF68D1F824906FF30F0747EA090760
:100F1000DF60DF6847F48037DF600768D7F86090EC
:100F200049F48019C7F860900F7817F0080F1DD0AA
:100F3000B1F82C909F6869F31F479F60DF6847F402
:100F40000037DF60DF68D1F8309027F4402747EAA8
:100F50000907DF600768D7F8649049F48019C7F87B
:100F600064900068076D47F080670765087810F0A7
:100F7000100F09D098688F696FF30D00384398609F
:100F8000D86840F08060D860087810F0140F20D046
:100F9000D8680CF1010CBCF1040F40F08040D8601F
:100FA000D86840F00040D86028BFACF1040C56F877
:100FB0002C304FF00108D86810F0004F09D056F8D7
:100FC0002500C16821F00041C160BDE8F0030220A6
:100FD000704720681860986867686FF30D003843A1
:100FE0009860A76808F101004FF0000857B13C462F
:100FF0003F685F60D3F80890A7886FF31D4949EAFE
:10100000074704E0C3F804809F686FF31D479F60A3
:101010000F7817F0100FDF6812D0B1F8209027F486
:10102000F00747EAC947DF60DF68D1F81C906FF32B
:10103000110747EA0907DF60DF6847F480271DE0F2
:10104000D1F804906FF30E0747EA0907DF600F78C5
:1010500017F0010F07D0DF68D1F8149027F440375C
:1010600047EA0907DF600F7817F0200F07D0DF6825
:10107000D1F8109027F0406747EA0907DF600F7842
:1010800017F0040F07D09F68D1F8289027F4404745
:1010900047EA09079F60DF6847F00057DF60DF68B5
:1010A00027F08047DF60DF6847F00047DF600F7898
:1010B00017F0020F07D0DF68D1F80C9027F06077A7
:1010C00047EA0907DF60A768002F79D0DF680CF1D5
:1010D000010CBCF1040F27F08057DF6028BFACF192
:1010E000040C56F82C30DF6827F00057DF60DF680B
:1010F00017F0004F17D056F82520002818BF002100
:101100000DD9D36805F10105042D23F00043D36008
:1011100028BF2D1F56F82520491C8142F1D3BDE878
:10112000F00302207047A46827681F609F68D4F806
:1011300004906FF30D0747EA09079F60A768401CFA
:1011400057B13C463F685F60D3F80890A7886FF3BB
:101150001D4949EA074704E0C3F804809F686FF31C
:101160001D479F600F7817F0100FDF680AD0D1F885
:101170001C906FF3110747EA0907DF60DF6847F447
:10118000802711E0D1F804906FF30E0747EA0907B2
:10119000DF600F7817F0010F07D0DF68D1F81490E7
:1011A00027F4403747EA0907DF60DF6847F0004768
:1011B000DF60DF6827F08047DF60A768002F85D1F8
:1011C0009868002A14BF40F0004020F0004098606A
:1011D000D86840F08050D860C6F810C00020BDE844
:1011E000F0037047F0B40B7991F80CC00E688A6870
:1011F000DB064C7B43EACC5332438D7B1A43CE7BD8
:101200000F7C42EA845242EA4552002F42EA0653DA
:101210000CBF0122002291F811C0BCF1000F43EA7B
:10122000C2420CBF0123002391F812C00D7F42EA95
:1012300043438E7FD1E9052443EA0C4391F81DC056
:101240001A43224342EA0532002E42EACC230CBF65
:101250000122002291F81FC091F8205043EA822217
:10126000002D42EA4C240CBF4FF0010C4FF0000C53
:101270004B6A026844EA0C2C91F828404CEA0303BC
:10128000DFF818C1CD6A166843EA04132B4306EA57
:101290000C0C4CEA0303136091F83C3091F838C011
:1012A00091F830405B0691F8315091F8322043EAD2
:1012B0000C6343EA8443002A43EA45440CBF0123FC
:1012C00000230268D1F834C044EA0343344C556823
:1012D00043EA0C0305EA040C4CEA0303536002687A
:1012E00091F840404B6CD2F80CC043EA04232CF038
:1012F0000F0C2CF4807C4CEA0303D36091F854303B
:1013000091F84CC00A6DBCF1000F42EA43030CBFD8
:1013100001240024B1F848C002684FF60D75E401BD
:10132000166F44EA0C44234306EA050C4CEA030317
:101330001367026891F8563091F85540D2F890C082
:1013400043EA44032CF0030C4CEA0303C2F8903048
:1013500002688B6DD2F800CD2CF0720C4CEA0303BE
:10136000C2F8003D91F86020CB6D002A0CBF01222D
:10137000002291F861C0006891F8621043EA82137C
:101380004FEA0C1CD0F8302D4CEAC101194322F071
:101390007B021143C0F8301DF0BC7047838004000D
:1013A0000080F8C04FF4806003F0B0B8802003F0F4
:1013B000ADB8002908BF7047FEE700000E4D0F4C86
:1013C0000F4E104F28682168884210D0206821688D
:1013D00006EB400201EB8110118807EB001007F0CB
:1013E000D9F82068401CC0F309002060EAE7022019
:1013F00014F078FBE6E70000F0320024F432002419
:10140000E0670024F8410024014802F063BA0000BC
:10141000707600242DE9F0470F46064603F0B0F938
:10142000012F80460CBF0425304DDFF8C490314CAD
:1014300015EA090A07D0D4F8100125EA000030F0B7
:10144000004004D017E0206935EA000013D1B6F15E
:10145000FF3F06D003F094F9A0EB0800B04229D872
:1014600046B3BAF1000F28D0D4F8100125EA0000E5
:1014700030F00040EBD0012F07BF1F4821691F4803
:10148000D4F8101101EA000018BF40F0004030F01D
:10149000004117D01A498A6910EA090F42EA00028E
:1014A0008A610EBF606120F00040C4F81401012081
:1014B000BDE8F0870320BDE8F087206935EA000029
:1014C000C5D0D8E7012F4FF4803009D0D4F81011DF
:1014D00011F4803F18BFC4F814010020BDE8F08764
:1014E000216911F4803F18BF6061F6E704000080B5
:1014F000F0FF10E0002000520000EE170000EE9711
:10150000387700242DE9F001D1E90832D1F81CC068
:101510000C68F4B104684CEA030324F4F844224351
:101520001A430260D1E9012CD1E903454B6942EA33
:101530000C0C42682C4389694CEA040C4CEA030306
:1015400019436FF30E0211434160BDE8F001002022
:1015500070470C1DD1E9056194E8B0012C4347EABE
:1015600008052C4334430C43016844EA0C0C4CEA54
:1015700003031A436FF30E0111430160E5E742696B
:101580006FF34D0242EA410141610020704730B4DF
:101590008A686FF01F04D1E9003CC968056904EB53
:1015A000421243EA0C0342EA4121194329430161F3
:1015B00030BC0020704700002DE9F00FB1F814C0D6
:1015C000002A2D4C4FF07F46CB6804EB0C526FF095
:1015D000FF046FF00F0C4FEA042527D087681B0328
:1015E000A3F5805327F470471A4327F470073A4352
:1015F0008260D1E900278B680CEB071C571E0A8A12
:10160000097E04EB0323C46847EA0C0C05EB024295
:101610004CEA03031A4306EB0161114304F07043E3
:101620001943C160BDE8F00F00207047D1E9008781
:10163000D1F80890DFF844A0B1F810B00CEB071C0B
:10164000097EA8F1010704EB092447EA0C0C0AEB18
:1016500003334CEA040C4CEA030C836805EB0B449F
:101660004CEA040C06EB01614CEA0202114303F060
:10167000704319438160D5E70000F0FF00F0FFFFE1
:10168000002804BF0120704790F83510022903D0CC
:1016900080214165012070472DE9F05FDFF85CB1E2
:1016A0000168574A574B5945DFF85CC1574C584DB4
:1016B000584E594FDFF86481DFF86491DFF864A178
:1016C00018BF914225D0994218BF614521D0A1424F
:1016D00018BFA9421DD0B1421CBFDFF84CE17145D3
:1016E00017D0DFF848E171451CBFDFF844E17145D0
:1016F0000FD0DFF840E1714518BFB94209D0DFF8DB
:1017000038E1714518BF414503D0494518BF5145DF
:1017100024D14FF0040E80F835E0594518BF9142AE
:1017200017D0994218BF614513D0A14218BFA942F2
:101730000FD0B1421CBF3C4881420AD03B48814295
:101740001CBF3B48814204D03A4881421CBFB94289
:101750003948086820F0010008604BE0D1F800E04B
:101760002EF00E0EC1F800E00168594518BF9142F5
:1017700017D0994218BF614513D0A14218BFA942A2
:101780000FD0B1421CBF284A91420AD0274A914249
:101790001CBF274A914204D0264A91421CBFB9423D
:1017A000254A0A6822F001020A60016E4FF0010228
:1017B0000B6823F480730B6090F85C30816D03F04C
:1017C0001F0302FA03F34B60D0E919134B60C16E9B
:1017D00031B10B6823F480730B60D0E91C134B60AC
:1017E0004FF00003016D80F8343080F83520002977
:1017F00018BF88470020BDE8F09F0000100002409D
:1018000028000240400002405800024070000240A0
:1018100088000240A00002405804024088040240B0
:10182000A0040240B8040240B80002401004024084
:101830002804024040040240700402402DE9F84FA1
:101840000446DFF800840020DFF8009400904FF495
:101850001652FD48A56DFE4EFE4F01682068B1FB93
:10186000F2FBD5F800A0404529681CBFF74A90421A
:101870002BD0B04218BFB84227D0F74A90421CBFC5
:10188000F64A904221D0F64A90421CBFF54A904257
:101890001BD0F54A90421CBFF44A904215D0F44A3E
:1018A00090421CBFF34A90420FD0F34B98421CBFAA
:1018B000DFF8C8C3604508D0DFF8C4E370451CBF3B
:1018C000DFF8C0E3704540F0308294F85C204FF0C0
:1018D000080102F01F0201FA02F212EA0A0F41D0D7
:1018E000404518BF48452AD0B04218BFB84226D05C
:1018F000D94A90421CBFD94A904220D0D84A90423F
:101900001CBFD84A90421AD0D74A90421CBFD74A2F
:10191000904214D0D64A90421CBFD64A90420ED074
:10192000D54A90421CBFD54A904208D0D44A904232
:101930001FBFD44A9042026802F0080202D1026836
:1019400002F0040272B1026822F00402026094F80C
:101950005C0000F01F0001FA00F0A860606D40F02C
:101960000100606594F85C0000F01F014FF0010079
:1019700000FA01F111EA0A0F36D02068404518BF7D
:10198000484528D0B04218BFB84224D0B24A90424D
:101990001CBFB24A90421ED0B14A90421CBFB14A0D
:1019A000904218D0B04A90421CBFB04A904212D028
:1019B000AF4A90421CBFAF4A90420CD0AE4A904210
:1019C0001CBFAE4A904206D0AD4A90421EBFAD4AFF
:1019D0009042006808D1406910F0800F04D0A960DF
:1019E000606D40F00200606594F85C0000F01F013B
:1019F0004FF0040000FA01F111EA0A0F36D0206816
:101A0000404518BF484528D0B04218BFB84224D03E
:101A1000914A90421CBF914A90421ED0904A9042F7
:101A20001CBF904A904218D08F4A90421CBF8F4AE8
:101A3000904212D08E4A90421CBF8E4A90420CD0E7
:101A40008D4A90421CBF8D4A904206D08C4A9042EB
:101A50001EBF8C4A9042006808D1006810F0020F47
:101A600004D0A960606D40F00400606594F85C10DB
:101A70004FF0100001F01F0100FA01F111EA0A0F06
:101A80004FD02068404518BF48452AD0B04218BF03
:101A9000B84226D0704A90421CBF704A904220D073
:101AA0006F4A90421CBF6F4A90421AD06E4A9042D1
:101AB0001CBF6E4A904214D06D4A90421CBF6D4AC2
:101AC00090420ED06C4A90421CBF6C4A904208D0A3
:101AD0006B4A90421FBF6B4A9042006800F00400BE
:101AE00002D1006800F00800D8B1A9602068016840
:101AF00011F4802F09D0006810F4002F02D0A16CDF
:101B000079B10CE0216C51B90BE0016811F4807FD0
:101B100003D1016821F008010160216C09B1204660
:101B2000884794F85C10202001F01F0100FA01F1B1
:101B300011EA0A0F6ED02068404518BF48452AD0E8
:101B4000B04218BFB84226D0434A90421CBF434A15
:101B5000904220D0424A90421CBF424A90421AD042
:101B6000414A90421CBF414A904214D0404A9042A0
:101B70001CBF404A90420ED03F4A90421CBF3F4A91
:101B8000904208D03E4A90421FBF3E4A90420068B1
:101B900000F0020002D1006800F01000D0B3A9608C
:101BA00094F8350004282068016809D011F4802FCA
:101BB00034D0006810F4002F2DD0E16B51B33DE01C
:101BC00021F0160101602068416921F08001416126
:101BD000206C002804BFA06C002804D02068016895
:101BE00021F00801016094F85C304FF03F024FF0A3
:101BF00000014FF0010003F01F0302FA03F2AA6094
:101C000084F8341084F83500216D002940F08C816F
:101C1000BDE8F88F14E0616C81B911E0016811F43E
:101C2000807F09D102680023012122F010020260A6
:101C300084F8343084F83510E16B09B120468847C8
:101C4000606D21E010000240203300242800024093
:101C500040000240580002407000024088000240EC
:101C6000A0000240B80002401004024028040240D4
:101C700040040240580402407004024088040240BC
:101C8000A0040240B8040240002808BFBDE8F88F55
:101C9000606D10F0010F43D02068042184F83510E6
:101CA000404518BF484521D0B04218BFB8421DD0AA
:101CB000A04988421CBFA049884217D09F4988424A
:101CC0001CBF9F49884211D09E4988421CBF9E4933
:101CD00088420BD09D4988421CBF9D49884205D04F
:101CE0009C4988421EBF9C4988429C49016821F05A
:101CF000010101602068009901F10101009159453D
:101D000003D8016811F0010FF5D1002184F83410D7
:101D1000006810F0010F14BF0320012084F8350083
:101D2000E16C00293FD1BDE8F88FDFF834924845D7
:101D30001CBFDFF83092484518D0DFF82C92484598
:101D40001CBFDFF82892484510D0DFF824924845A0
:101D50001CBFDFF82092484508D0DFF81C924845A8
:101D60001EBFDFF818924845BDE8F88F94F85CA0D4
:101D70004FF0040BD0F800900AF01F0A0BFA0AFB90
:101D80001BEA010F18BF19F0040F4BD019F4004FD4
:101D9000C5F804B00DD019F4803F05D0216C00299E
:101DA00008BFBDE8F88FBFE0A16C002976D1BDE87F
:101DB000F88F19F0200F31D1206840451CBF7049C1
:101DC000884227D0B04218BFB84223D05949884230
:101DD0001CBF594988421DD0584988421CBF5849E8
:101DE000884217D0574988421CBF5749884211D0B2
:101DF0005649884218BF90420CD0984218BF60459F
:101E000008D0564988421FBF5E498842016821F0C8
:101E1000040102D1016821F008010160216CE9BBD5
:101E2000BDE8F88F4FF0020B0BFA0AFB1BEA010F1B
:101E300018BF19F0020F54D019F4004FC5F804B0C0
:101E40000CD019F4803F05D0E16B002908BFBDE834
:101E5000F88F69E0616C09BBBDE8F88F19F0200FBD
:101E60003BD1206840451CBF4549884229D0B0423B
:101E700018BFB84225D02F4988421CBF2E4988423E
:101E80001FD02E4988421CBF2D49884219D02D49A8
:101E900088421CBF2C49884213D000E044E02B4903
:101EA000884218BF90420CD0984218BF604508D0B5
:101EB0002A4988421FBF33498842016821F00A013C
:101EC00002D1016821F0140101604FF0000184F893
:101ED00034104FF0010084F83500E16B21BBBDE800
:101EE000F88F4FF0080202FA0AF20A4214BF19F002
:101EF000080FBDE8F88F016821F00E01016094F829
:101F00005C104FF0010001F01F0100FA01F24FF0E8
:101F100000016A60606584F8341084F83500E16C73
:101F2000002908BFBDE8F88F204601B0BDE8F04F9A
:101F3000084700007000024088000240A0000240F4
:101F4000B80002401004024028040240400402404D
:101F5000580402407004024088040240A004024079
:101F6000085402581C540258305402584454025821
:101F7000585402586C5402588054025894540258D1
:101F800028000240B80402402DE9F05F044602F048
:101F9000F7FB002C074600F0B581DFF8D4C34FF003
:101FA000010620684FF00005F249F34A6045F34B03
:101FB000DFF8CCE3DFF8CC83DFF8CC93DFF8CCA3F9
:101FC0001CBFDFF8CCC360452FD0DFF8C8C3604525
:101FD0001CBFDFF8C4C3604527D0DFF8C0C360452D
:101FE0001CBFDFF8BCC360451FD0884218BF9042B9
:101FF0001BD0984218BF704517D0DFF8A8C36045C2
:102000001CBFDFF8A4C360450FD0DFF8A0C3604554
:102010001CBFDFF89CC3604507D0DFF898C360455C
:102020001CBFDFF894C360457ED1DFF844B34FF0A6
:10203000020C84F8345084F835C058451CBFDFF8D2
:1020400050C3604523D0DFF84CC360451CBFDFF8A8
:1020500048C360451BD0DFF844C360451CBFDFF8B0
:1020600040C3604513D0884218BF90420FD09842B9
:1020700018BF70450BD0CB4988421CBFCA49884263
:1020800005D0CA4988421EBFC9498842C94901686A
:1020900021F0010101602068006810F0010F11D0EB
:1020A00002F06EFBC01B052807D9202161650320C3
:1020B00084F835000120BDE8F09F2068006810F02A
:1020C000010FEDD1D4E902272168D4E904033A4392
:1020D000D4F818C0D4E9077B034308681343B74A10
:1020E00043EA0C03D4F824E03B43104043EA0B02DC
:1020F000BEF1040F42EA000003D1D4E90B231A43D6
:10210000104308602368606A5969042821F00701B8
:1021100040EA01023AD1D4E90A100A4340B3D4F8A4
:1021200018C0BCF1000F00E03CE00AD0BCF5005F35
:1021300014D000291CBF0129022921D003291CD059
:1021400024E019B1012905D002291FD110F0807FA8
:102150001CD015E0B0F1C07F18D111E081B1012988
:1021600007D002290CD0032908BFB0F1C07F07D0E7
:102170000CE010F0807F03D108E010F0807F05D0E4
:102180004FF04000606584F83560BBE05A6120463E
:10219000FEF74CFD94F85C203F2102F01F029140B5
:1021A00081604FE08649884218BF40450FD04845BE
:1021B00018BF50450BD0834988421CBF82498842D2
:1021C00005D0824988421CBF814988427CD184F86D
:1021D00034504FF0020184F835100168A2686FF3A3
:1021E0001011402A08BF102704D0802A0CBF4FF4DA
:1021F00080470027D4E903B2D4E9053C47EADB0E67
:10220000D4E9077B4EEAD20E724A4EEAD30E724BE5
:102210004EEADC0C4CEAD70C4CEA1B1C4CEA0101E0
:10222000016020681044A3FB001000098000E065F5
:102230002046FEF7FBFC94F85C1001F01F0106FA43
:1022400001F141605E4A2068904218BF40450FD0BE
:10225000484518BF50450BD05A4988421CBF5A49BF
:10226000884205D0594988421CBF594988424DD1FE
:10227000C1B25948A1F108035849A0FB0330584B9B
:1022800063664FEA101000F01F0301EB800006FAAE
:1022900003F1A1662066A068802808BF65602079E8
:1022A000216E0860D4E9190141606068411E072968
:1022B00055D8C1B24B1E072B4BD82068904218BF8F
:1022C000404511D0484500E015E018BF50450BD0FF
:1022D0003C4A90421CBF3C4A904205D03B4A904247
:1022E0001CBF3B4A90422BD13F483E4A02EB810142
:1022F000C4E91B102AE04FF040014FF00300616574
:1023000084F835004FF00100BDE8F09FDFF8DCC035
:10231000C1B2A1F11001364BACFB01C11844A82891
:102320004FEA111098BF0830324900F01F0301EB4B
:102330008000314906FA03F3A366C4E91801AAE74D
:102340002F482E4A02EB8101C4E91B1006FA03F064
:102350006067E06E0560D4E91C01416002E0E5665B
:1023600025676567656584F835600020BDE8F09FE6
:1023700010000240A0000240B800024010040240D9
:10238000280402401C540258305402584454025845
:102390002800024040000240580002407000024005
:1023A0008800024040040240580402407004024089
:1023B00088040240A0040240B80402403F8010FE9E
:1023C00008540258585402586C5402588054025809
:1023D00094540258F8ABFDA7CDCCCCCC0058025891
:1023E00080580258FC58025840590258ABAAAAAA71
:1023F000F0FBFDBF0008024080080240FC080240DC
:10240000400902402DE9F05F04008E464FF00005C0
:1024100004BF0120BDE8F09F94F83400012804BFF8
:102420000220BDE8F09F94F835C00120002184F817
:102430003400BCF1010F07D0C00284F8341001252C
:1024400060652846BDE8F09FDFF870C1022620686D
:1024500084F8356060455A4E61655A4FDFF86881EF
:10246000DFF86891DFF868A1DFF868B118BFB04203
:102470001ED0B84218BF40451AD0484518BF504535
:1024800016D058451CBF5449884211D05349884240
:102490001CBF534988420BD0524988421CBF524945
:1024A000884205D0514988421EBF5149884251494E
:1024B000016821F00101016071462046FEF724FC0D
:1024C0003E492068884218BFB04224D0B84218BFA5
:1024D000404520D0484518BF50451CD058451CBF2A
:1024E0003D4A904217D03D4A90421CBF3C4A904220
:1024F00011D03C4A90421CBF3B4A90420BD03B4A11
:1025000090421CBF3A4A904205D03A4A90421CBFC2
:10251000394A90420CD1026822F01E0242F01602A3
:102520000260206C88B12068026842F008020BE06B
:10253000026822F00E0242F00A020260206C20B112
:102540002068026842F004020260206E026812F401
:10255000803F03D0026842F480720260E06E18B1DE
:10256000026842F4807202602068884218BFB0425C
:102570001ED0B84218BF40451AD0484518BF504534
:1025800016D058451CBF1449884211D013498842BF
:102590001CBF134988420BD0124988421CBF124904
:1025A000884205D0114988421EBF1149884211490D
:1025B000016841F00101016043E7000010000240A2
:1025C00028000240400002405800024070000240D3
:1025D00088000240A0000240B800024010040240FF
:1025E00028040240400402405804024070040240A3
:1025F00088040240A0040240B804024070B50446BA
:1026000002F0BEF8B4F1FF3F054602D0044800785E
:10261000044402F0B5F8401BA042FAD370BD00009C
:102620002833002400F12C02D2E9053CBCF1000F54
:1026300052F8231004BF0120704770B4D469002CF5
:1026400018BF0CF1010CBCF1000F18BF002488BFAB
:102650004FF0807522D90E690E60CD604E692EB1A3
:102660004E698E60CE6846F00076CE60CE6846F049
:102670000046CE60166A1EB1CE6846F08046CE6037
:102680009669A6F10106B44205D25B1C042B28BF53
:102690001B1F52F82310641C6445DCD30368002020
:1026A00003F58053C3F82811906170BC70477047E0
:1026B00000EB810C002ADCF82CC018BF042903D3DE
:1026C0000121C16508467047CCF80020CCF81020E5
:1026D000DCF80C0040F08070CCF80C004BB1CCF86A
:1026E0000830CCF81430DCF80C0040F00070CCF866
:1026F0000C00DCF80C0040F00040CCF80C0000208E
:1027000070477047002904BF012070470122036809
:102710001B6803F00C03CB6203681B68C3F3001350
:1027200081F8283003681B6803F060034B6203687C
:102730001B6822EA132381F8203003681B68C3F367
:102740004023CB7703681B6822EA93238B770368C7
:102750001B68C3F3C0234B7703681B68C3F30033C4
:102760000B7703681B6803F400538B6103681B68D5
:1027700003F480434B6103681B68C3F300438B740D
:1027800003681B6822EA53434B7403681B6822EA00
:10279000D3430B7403681B68C3F30053CB73036804
:1027A0001B68C3F340538B7303681B68C3F38053E8
:1027B0004B7303681B68C3F3C0530B7303681B6838
:1027C00003F0E0638B6003681B68C3F3C0630B71A5
:1027D00003681B6803F0E0430B6003685B68C3F3A6
:1027E0000D034B6303685B6822EA134381F83230C0
:1027F00003685B68C3F3404381F8313003685B686A
:10280000C3F3804381F8303003685B68C3F300632F
:1028100081F8383003685B68C3F34463CB630368B3
:10282000DB68C3F3002381F840300368DB6803F002
:102830000F034B6403681B6FC3F3400381F85430EC
:1028400003681B6F22EAD31381F84C3003681B6FB7
:1028500003F070030B6503681B6F1B0C8B6403682C
:10286000D3F8903003F0010381F856300368D3F8B1
:102870009030C3F3400381F855300368D3F8003D2E
:1028800003F072038B650368D3F8303D03F0230334
:10289000CB650368D3F8303DC3F3C00381F86230E1
:1028A0000368D3F8303DC3F3001381F8613000684A
:1028B000D0F8300D22EA901081F8600000207047B7
:1028C000F0B5026C00F12C050C0006464FF0000735
:1028D00055F8221037D0A869002837D0AB69012BF2
:1028E00018BF002019D00B692360736963604B69BE
:1028F00023B1A4684B69236073696360C968521C83
:10290000042AC1F30E0728BF121F55F82210401CDD
:10291000AB69A4685B1E8342E5D8C8680A69226077
:102920007269C0F30E00C01B824228BF606008D2EB
:102930004B69A3B16260A268496911607169401A6C
:1029400050600020F0BD0120F065F0BD304600F081
:1029500079FA00281CBF6A6955F82210BED10120FF
:10296000F0BD70B500F12C040D46D4E9056129B91C
:1029700000F068FA002804BF012070BD711EA06934
:102980000844042828BF001F54F82000C068C0F382
:102990000E002860002070BD70B50446006800F588
:1029A0008050D0F8601111F0400F1CBFD0F83401F6
:1029B00010F0400F09D0204600F0BCFB216848F21F
:1029C000400001F58051C1F86001206800F5805099
:1029D000D0F8601111F0010F1CBFD0F8340110F0D5
:1029E000010F09D0204600F0E4FC216848F2010004
:1029F00001F58051C1F86001E026206800F58050A3
:102A0000D0F8601111F4804F1CBFD0F8341111F4CC
:102A1000804F22D0E16D41F00801E165D0F86011EE
:102A200011F4805F0DD0D0F8601141F20212114014
:102A30002166D0F8341121F44041C0F834116665A4
:102A400008E0D0F860214FF4CD4102F4CD42226677
:102A5000C0F860112046FFF72AFE206800254FF4D9
:102A6000C041D0F8B020914307D1D0F8B8006066DB
:102A70006665204600F066FA65662068D0F8B010FA
:102A800011F0100F08D0D0F8C00000F06000A06670
:102A9000204600F019FBA5662068D0F8B01011F0B0
:102AA000200F08D0D0F8C00000F00F00E0662046EC
:102AB000FFF727FEE5664FF0B040D0F8A81011F4FC
:102AC000800F08BF70BD4FF48001C0F8A8102046E9
:102AD00000F070FC70BD0000002804BF01207047AA
:102AE000F0B50446406D99B0002804BF204600F0C0
:102AF0002BFA23206065C748016841F0020101609C
:102B0000006800F002000090207A002818BF4FF4FF
:102B1000000004F0A9F8206800F58050016841F039
:102B20000101016001F02CFE05462068E02600F559
:102B30008050006810F0010F13D000BF01F020FE9C
:102B4000401BB0F5FA7F05D90420E065666519B031
:102B50000120F0BD206800F58050006810F0010FE2
:102B6000ECD12068D0F8000220F4706502F046FF36
:102B7000A94AAA4902448A4238BF45F4007515D3D0
:102B8000A74AA84902448A4238BF45F440750DD38C
:102B9000A54AA64902448A4208D3A54AA549104439
:102BA000884234BF45F4807545F480652068C0F8DC
:102BB000005202F023FFA0492268B0FBF1F0401E52
:102BC000C2F8DC0000258DF81D5001278DF8047037
:102BD0008DF80F70780306908DF80E704FF4C36077
:102BE0000D9020200995B9038DF81F508DF82850BD
:102BF0008DF80C508DF832708DF860700F9512952D
:102C00008DF838500295149517904FF040508DF87C
:102C100061508DF81C50059169468DF862500B95F6
:102C20008DF81E708DF811708DF840508DF8315070
:102C3000009002208DF812508DF8565016902046C4
:102C40008DF820708DF854508DF830508DF810703C
:102C50008DF80D508DF8555011958DF84C70FEF78C
:102C6000C1FA216841F20100744B01F58051744AA8
:102C7000D1F800C02CF0020C2CF4F04CC1F800C0CC
:102C8000216801F58051D1F804C02CF0010C2CF41E
:102C9000504C4CEA00004860206800F58050D0F8A5
:102CA0000011194041F40671C0F80011206800F5C8
:102CB0008050D0F80411114041F40011C0F8041103
:102CC000206800F58050D0F8081121F47C1121F023
:102CD000004141F40011C0F80811206800F580504F
:102CE000D0F8001121F4E01141F40021C0F80011E6
:102CF000606910F0030F04D0E765666519B0012024
:102D0000F0BD216801F58051D1F808216FF34E0222
:102D100042EA4000C1F80801E0680321056045600F
:102D20008560C560A061E0688561C5610562456236
:102D30001830E061E068056345638563C563303042
:102D40002062E0688564C564056545654830C4E96E
:102D50000905206800F58050C0F82C112068E26851
:102D600000F58050C0F814212268E06802F5805216
:102D7000C2F820012069056045608560C560056175
:102D80004561E06220698561C561056245628562D1
:102D9000C562183020632069056345638563C56398
:102DA000056445643030606320698564C5640565E9
:102DB00045658565C5654830C4E90E0525646564CB
:102DC000E564A564206800F58050C0F830112068E3
:102DD000216900F58050C0F81C112168206901F5B7
:102DE000805100F5D860C1F828011020D4E90021F5
:102DF0008988C2F80013D4E900210B78D1F80110BA
:102E000043EA0121C2F80413E5656065A06519B0C5
:102E10000020F0BDF444025800D3CEFEC0E1E4002F
:102E200040F1E9FD40787D0100796CFC005A6202B6
:102E3000001F0AFA80F0FA0240420F0000C0FEFFB5
:102E4000EFEFC0FF30B4C16B00F12C02456C0024E1
:102E500023462046002D52F821C01EBF002030BC62
:102E6000704733E0DCF80C50641C15F0805F20D014
:102E700003F1010CBCF1010F08BF08464B1C042BE9
:102E800028BF1B1F52F82310CC6814F0004F09D143
:102E9000C96811F0804F05D00121D1615B1C042B62
:102EA00028BF1B1FC2F818C0C2E9043030BC012083
:102EB0007047DCF80CC01CF0005F0DD00123084601
:102EC000491C04290CD200BF52F821C0DCF80C5078
:102ED00015F0004F08D105E0491C5B1C0429F3D311
:102EE000091FF1E7042CBDD3002B1CBF52F82010A2
:102EF0004FF0000C88BF4FF080741FD90D690D6032
:102F0000CC604D692DB14D698D60CD6845F000757F
:102F1000CD60CD6845F00045CD60156A1DB1CD6826
:102F200045F08045CD6000F10100042828BF001F56
:102F300052F820100CF1010C9C45DFD30020906169
:102F400030BC7047704700005A48F0B5016887B040
:102F500041F001010160016801F001010591016882
:102F600041F004010160016801F00401059101686C
:102F700041F001010160016801F001010591016862
:102F800041F001010160016801F001010591016852
:102F900041F004010160016801F00401059101683C
:102FA00041F004010160016801F00401059101682C
:102FB00041F040010160016801F0400105910168A4
:102FC00041F040010160016801F040010591016894
:102FD00041F04001016000680021374E022500F0F9
:102FE000400005900B240395042004940090304683
:102FF000CDE90151694601F097FA304F69460095D5
:103000003846049401F090FA6946304600950494DD
:1030100001F08AFA8020694604940090304601F05D
:1030200083FA1020694604940090384601F07CFA37
:103030002020694604940090384601F075FAA802F1
:103040001F4D694604940090284601F06DFA4FF434
:103050000050694604940090284601F065FA4FF448
:103060008040694604940090284601F05DFA0022F1
:1030700007213D2001F074FE3D2001F061FE114862
:10308000016841F400410160016801F400410091D0
:10309000016841F480310160016801F480310091E0
:1030A000016841F400310160006800F400300090D4
:1030B00007B0F0BDE0440258000002580008025872
:1030C00000180258D8440258704770B5044600688A
:1030D0001E46D0F8003213F0010F1CD1D0F8003298
:1030E00023F0787343EA415121F4F81141EA024197
:1030F00041F00D01C0F8001201F042FB05462068C6
:10310000D0F8000210F0010F0DD001F039FB401B88
:10311000B0F57A7F01D9012070BD2068D0F8000297
:1031200010F0010FF1D12068D0F8040280B23060B5
:10313000002070BD08B5002069460090084800686E
:1031400013F014FB0098002808BF08BD4FF0805012
:1031500004490860BFF34F8FBFF36F8F08BD0000B5
:103160006C34002404ED00E010B511B1826D102A1A
:1031700001D0012010BDFEF735F8002010BD30B49D
:10318000426DC16A102A1EBF012030BC7047232344
:1031900043650122CD6810234FF0220C45F0804595
:1031A0004DF24104CD60016BCD6845F08045CD60A6
:1031B000416BCD6845F08045CD60816BCD6845F0B1
:1031C0008045CD60C26401680A6842F002020A606C
:1031D00001680A6842F001020A600168D1F8002D16
:1031E00042F00102C1F8002D016801F58051D1F8CB
:1031F000042142F00102C1F80421016801F5805167
:10320000D1F8082142F00102C1F80821016801F556
:103210008051D1F8602142F48172C1F86021436588
:10322000C0F858C0006800F58050D0F83411214330
:10323000C0F8341130BC002070474DF8044D426D89
:10324000C16A002A02BF01205DF8044B70472322A7
:103250004265102302684FF0000C02F58052D2F84C
:10326000344124F0410424F40044C2F8344102689B
:1032700002F58052D2F8044124F00104C2F804415E
:10328000026802F58052D2F8084124F00104C2F825
:1032900008410268146824F0010414600268D2F83E
:1032A000004D44F00104C2F8004D0268146824F097
:1032B00002041460CA6822F08042CA60CA6822F020
:1032C0008042CA60CA6822F08042CA60CA6822F09E
:1032D0008042CA60C0F84CC04365836500205DF839
:1032E000044B70472DE9F0411546044619B1606D55
:1032F000102807D05AE0E06D40F00100E0650120A1
:10330000BDE8F08100222046FDF7E6FD30B1E06D1A
:1033100040F00200E0650120BDE8F081A06A04EB06
:103320008001401C04288E69A06224BF001FA06297
:1033300004EB8000216801F580518069C1F820010B
:1033400001F01EFA0746F0684FF0100810F0004F29
:1033500021D0206800F58050D0F8600110F4805F23
:103360000CD0E16DE02041F00801E165216801F534
:103370008051D1F860112166606517E0B5F1FF3F1B
:1033800005D001F0FDF9C01BA84209D845B1F0688D
:1033900010F0004FDDD1C4F854800020BDE8F0816A
:1033A000E06D40F00400E065C4F854800120BDE801
:1033B000F08170477047000070B504460068D0F88F
:1033C00000C21CF0010F23D1D0F800029BB2DFF83D
:1033D00054C020F07870CCF8043240EA415020F418
:1033E000F81040EA024020F00C0040F00500CCF854
:1033F000000201F0C5F905462068D0F8000210F07F
:10340000010F0DD001F0BCF9401BB0F57A7F01D956
:10341000012070BD2068D0F8000210F0010FF1D13A
:10342000002070BD008002400248016841F00101A7
:10343000016070472004005890F89830012B18BFA5
:10344000022B08D0D0F89C1041F00201C0F89C106B
:103450004FF0010070470368D3F858C01CEA010F11
:103460002CD1D3F85CC04CF0010CC3F85CC000BF99
:1034700011F4007F06D00368D3F8E0C04CEA020CD8
:10348000C3F8E0C011F4806F06D00368D3F8E4C03D
:103490004CEA0202C3F8E420026821F4401323F04E
:1034A0004043D2F854C00C484CEA03035365026809
:1034B00042EA917101604FF000007047D3F858C0A4
:1034C00031EA0C0C06BFD3F85CC04CF0020C4FF094
:1034D000030CC3F85CC0CBE714A800402DE9F0074B
:1034E00090F898304C68022B09D0D0F89C1041F02D
:1034F0000801C0F89C10BDE8F00701207047036880
:10350000D3F8C0C01CF07C5F0ED0D3F8C4C01CF44C
:10351000001F13D0D0F89C1041F40071C0F89C102B
:10352000BDE8F00701207047D0F89C1041F0200161
:10353000C0F89C10BDE8F00701207047D3F8C430F4
:10354000002C8C68C3F3044C0B6943D00D682343F3
:1035500045F0804453EA0403D0F86880D0F88490A2
:10356000D1E9066508FB0CF491F8208045EA060ACB
:103570004F6909EB8404CD6847EA0867184E4AEAA8
:1035800007072360231D3D4343F8045BC96806EB2E
:103590001141097800291EBFC91C5FEA9101D21CA4
:1035A0000CD000BF52F8025C491E12F8034C02F125
:1035B000040244EA052443F8044BF3D102680121D4
:1035C00001FA0CF1C2F8D010C0F894100020BDE848
:1035D000F00770470D88234343EA8543BCE70000AA
:1035E0000C6F010870474DF8044D90F89820012A9F
:1035F00018BF022A0AD0D0F89C1041F00201C0F88E
:103600009C105DF8044B4FF0010070470B68CA68CE
:10361000A3B10B69072A43EA42730FBF8A694A695B
:1036200091F808C042EA8C72006F496800EBC10053
:10363000C0E900325DF8044B00207047072A0ED025
:1036400091F808C0D2060C8A4B6943EA8C7342EAAF
:1036500004421A43C06E496840F82120EAE70B8A09
:103660004FF060548A69D1F81CC042EA034244EA30
:103670000C231A43EEE7002804BF0120704770B501
:10368000044690F8980000250228294613D0D4F863
:103690009C0040F00800C4F89C002068C16D21F037
:1036A0000301C165204600F0D3FCC4F89C5084F8A7
:1036B0009850002070BD20680323826942F0010207
:1036C00082612068826912F0010F07D101E00A29A6
:1036D00011D88269491C12F0010FF8D082690021CB
:1036E00022F0100282612068826912F0080F10D067
:1036F0000AE00A2908D9D4F89C0040F00100C4F877
:103700009C0084F89830C8E78269491C12F0080FC1
:10371000EFD18269012142F002028261C4F8945023
:1037200084F89810B9E7704770470000F0B490F83B
:1037300098C00024BCF1020F08D0D0F89C1041F0D2
:103740000801C0F89C10F0BC0120704740290ED041
:10375000412924D0D0F850C08C4541D8D0F89C10D5
:1037600041F02001C0F89C10F0BC01207047D0F857
:1037700000C0DCF8A04014F4FE0FEFD0DCF8A44049
:1037800014F07F0F23D0DCF8A440D0F844C0456F7C
:10379000C4F305240CFB04FC05EB8C0C27E0D0F8EB
:1037A00000C0DCF8B04014F4FE0FD7D0DCF8B44011
:1037B00014F07F0F0BD0DCF8B440D0F84CC0856F0C
:1037C000C4F305240CFB04FC05EB8C0C0FE0D0F8D3
:1037D0009C1041F48071C0F89C10F0BC012070472F
:1037E000456DD0F87CC005FB01F50CEB850CDCF8D1
:1037F000005015F080455560DCF800500CBFC5F353
:103800008A4525F060451560DCF800602F4D06F014
:1038100000569660DCF8006006F000461661BCF8C1
:103820000460B6B2D6615CF8046F06F47026D66008
:10383000DCF8007005EB164607F480175761DCF8DA
:10384000007007F400179761DCF80070C7F3066793
:1038500017625CF8047BFF0F57623678CEB116F022
:10386000010FA3F10103ACF1010C03D01CF8016FAF
:1038700003F8016FD26805EB12421278520808D0A3
:103880009CF80150521E5D701CF8025F03F8025F45
:10389000F6D1402904BF0068C0F8A84013D04129E0
:1038A00004BF0068C0F8B8400DD020294FF00102D5
:1038B00028BF01F01F01006802FA01F134BFC0F80F
:1038C0009810C0F89C100020F0BC70470C6F0108E5
:1038D000704700002DE9F05FC34D04460068291DC4
:1038E000D5F800A0D1F800B0D0F850C0466D036DF7
:1038F000476D016DD0F85480026D01F0F001D0F8F1
:10390000549008EA0108016D4FEA8A7A0AEA8B7A34
:10391000D0F854B001F06071D0F854E00CF4704C61
:1039200003F00F0302F071521EF4807F06EA0C06CA
:1039300007EA030709EA02090BEA010B1CBF016D44
:1039400011F4807F07D000214FF480720265296056
:103950002046FFF7BDFF2068416D11F4806F1CBF4A
:10396000016D11F4806F0DD0D0F8DC10D0F8E43088
:1039700000224FF4806CC0F850C019402A602046E5
:1039800000F0EAFBBAF1000F0CD020682AF44011D5
:1039900021F040414FEA9A7201652A605146204663
:1039A000FFF720FE3EB12068B10F06652960314661
:1039B000204600F0D3FB3FB12068B90F07652960AE
:1039C0003946204600F090FBB8F1000F09D020687E
:1039D0004FEA9871C0F8508029604146204600F0B7
:1039E0009BFB2068416D11F4006F1CBF016D11F449
:1039F000006F08D04FF400624FF0000102652960AB
:103A0000204600F0ACFB2068416D11F4007F1CBF24
:103A1000016D11F4007F0FD0D0F8D810D0F8E0304D
:103A20004FF4007C4FF00002C0F850C003EA0101DF
:103A30002A60204600F091FB2068416D11F4002FB0
:103A40001CBF016D11F4002F08D04FF400224FF07D
:103A5000000102652960204600F044FB2068416DAA
:103A600011F4803F1CBF016D11F4803F08D04FF46A
:103A700080324FF0000102652960204600F06BFBA8
:103A80002068416D11F4802F1CBF016D11F4802F4F
:103A900008D04FF480224FF00001026529602046D3
:103AA00000F058FB2068416D11F4003F1CBF016D10
:103AB00011F4003F0BD04FF400324FF000010265CB
:103AC0002960D4F89C0040F08000C4F89C00BBF151
:103AD000000F0AD020682BF440114FEA9B72016559
:103AE0002A6059462046FFF71FFEB9F1000F0CD09F
:103AF000206829F440114FEA997201652A60D4F8D0
:103B00009C0040EA0900C4F89C002068A0F18041B4
:103B1000B1F520415FD16068816811F0030F5AD080
:103B2000066AD0F82490026AD0F82480036A476AB3
:103B3000016A456AD0F820C001F4FC410D4006F04E
:103B40000F01466A02F0300203F4C0730CF4F02C4B
:103B500019EA010108EA020807EA030706EA0C0667
:103B600003D00162204600F0F2FAB8F1000F06D04F
:103B70006068C0F820804146204600F0EAFA60689C
:103B8000416A11F0400F1CBF016A11F0400F0BD0C9
:103B9000C16BC26B4FF0400303624FEA11412046F4
:103BA00002F03F0200F0D4FA2FB160680762394694
:103BB000204600F0CBFA35B160680562D4F89C006D
:103BC0002843C4F89C0036B160680662D4F89C00B3
:103BD0003043C4F89C00D4F89C0000281CBF204649
:103BE000FFF7A1FDBDE8F09F10A800402DE9F043CC
:103BF00093B0FF494C2204466846FCF70BFC002CAE
:103C000002BF012013B0BDE8F083DFF8E88320682D
:103C1000404504BF00F58070606094F8980000276C
:103C200020B9204684F8997000F020FA2068816954
:103C300021F01001816100F0A3FD054620680326F4
:103C4000806910F0080F09D000F09AFD401B0A2887
:103C500017D82068806910F0080FF5D120688169B5
:103C600041F00101816100F08BFD0546206880690B
:103C700010F0010F16D100BF00F082FD401B0A2892
:103C80000BD9D4F89C0040F00100C4F89C0084F8E3
:103C9000986013B00120BDE8F0832068806910F0BF
:103CA000010FE9D02068816941F002018161207C27
:103CB0000128206881690CBF21F0400141F04001DA
:103CC0008161607C0128206881690CBF41F48041DA
:103CD00021F480418161A07C0128206881690CBFAA
:103CE00021F4805141F4805181612068A16882698A
:103CF00022F44072114381612068816921F0A4019E
:103D000081612068016921F010010161E0680128EA
:103D100010D0C8B1022812D02068816941F080011A
:103D200081612068016941F010010161E0680328A8
:103D300005D009E02068816941F0040103E02068B2
:103D4000816941F020018161227E6FF0FF00D4E99A
:103D5000073C0102A58A5206A2F10079ACF10102EA
:103D6000D4F800C000EB032349EA03031A4301EB34
:103D700005452A43CCF81C20A268B2F5407F13D138
:103D8000D4E90A320511B4F82490D4F830C05B1E8F
:103D900000EB0220034305EB0C1201EB094043EA60
:103DA000020122680843D060206E30B12068616E45
:103DB000D0F8C0201143C0F8C010D4E917126846EB
:103DC000D1420AD02168A26ED1F8C83050F8222022
:103DD00023F007031A43C1F8C820216C51B12168B0
:103DE000626CD1F8BC3050F8222023F007031A434C
:103DF000C1F8BC20A16C59B12168E26CD1F8BC308B
:103E000050F8222023F0700343EA0212C1F8BC20CC
:103E1000216D59B12168636DD1F8BC2050F82300A1
:103E200022F4E06242EA0020C1F8BC00206840456C
:103E300004D16068816821F003018160C4F8947046
:103E400001233846C4F89C7084F8983025686A4A83
:103E5000DFF8A8C1616BD5F884706FF38F0747EA6C
:103E60008107C5F884702568278FD5F8848028F4E9
:103E70007F0848EA0747C5F884702568D4F8388079
:103E8000D5F8887041446FF38F0747EA8107C5F87A
:103E900088702568A78FD5F8888028F4FE0848EA3E
:103EA0000747C5F888702568D4F83C80D5F8A0701D
:103EB00001EB48016FF38F0747EA8107C5F8A0704F
:103EC0002568B4F84070D5F8A08028F4FE0848EAC8
:103ED0000747C5F8A070D4E91078256807FB0811DA
:103EE000D5F8B0706FF38F0747EA8107C5F8B07057
:103EF0002568B4F84870D5F8B08028F4FE0848EA80
:103F00000747C5F8B070D4E91278256807FB081197
:103F1000D5F8AC706FF38F0747EA8107C5F8AC702E
:103F2000D4E91478256807FB0811D5F8F0706FF311
:103F30008F0747EA8107C5F8F0702568B4F8587014
:103F4000D5F8F08028F47C1848EA0747C5F8F070E7
:103F50002568D4F85880D5F8C07001EB48016FF39C
:103F60008F0747EA8101C5F8C0102168B4F85C509A
:103F7000D1F8C07027F47C1747EA0545C1F8C05056
:103F8000216894F86050D1F8C07027F07C5747EA58
:103F90000565C1F8C050616B02EB8101E166A26B5F
:103FA00001EB82022267E56B02EBC5026267D4E98E
:103FB000105705FB07F502EB8502A267D4E91257FB
:103FC00005FB07F502EB8502E267D4E9145705FB10
:103FD00007F502EB8502C4F88020A56D02EBC5024F
:103FE000C4F88420E76DA56E07FB05F708E0000024
:103FF0001C6F010800A0004000AC0040FCD3004052
:1040000002EB8702C4F88820276E07FB05F502EB58
:104010008502C4F8902062450BD9D4F89C1018464C
:1040200041F02001C4F89C1084F8986013B0BDE8FA
:10403000F083914224BF13B0BDE8F08341F8040B34
:10404000D4F890209142F9D313B0BDE8F08300007A
:104050000548016841F480710160016821F48071B4
:104060000160132000F059BE944402581A484DF8DC
:1040700004EDB5B0016841F480710160006800F49E
:10408000807034901548016841F0010101600068BA
:1040900000F0010034904FF4004000904103684666
:1040A0001B9100F0BDFE012009230222CDE9302042
:1040B000CDE932034FF4C05109482F912FA900F0E8
:1040C00033FA02220121132000F04AFE132000F0EF
:1040D00037FE35B05DF804FBEC440258E04402586A
:1040E000000002587047000010B511F0010F04469F
:1040F00008BF10BD064B4021064AFFF717FB002200
:1041000020460121FFF798F9BDE81040FCF73CBCC0
:104110001033002410770024704790F8981001297C
:1041200007D0D0F89C1041F00401C0F89C10012089
:104130007047022180F89810002201688B6923F0F3
:1041400001038B61C0F89C20104670477047704790
:1041500070477047704770477047704770477047A7
:104160002DE9F05FDFF8FCA10446002788469AF8A5
:104170001400012804BF0220BDE8F09F4FF0000B9F
:1041800001208AF81400CAF818B0207910F0010F45
:1041900007D001214CF25030FDF73CF9002818BF40
:1041A0000127207910F0020F08D002214CF2503084
:1041B000FDF730F9002818BF012760D1002F5ED12C
:1041C0002068694D01285BD0781EC8F80000D4E94A
:1041D00002603044B04288BF4FF004094FD9606894
:1041E000216910F0010F0DD0EA6849EA062322F494
:1041F000E662EA60EA680A431A43EA60EA6842F063
:104200008002EA6010F0020F13D0D5F80C2149EAC1
:10421000062022F4E662C5F80C21D5F80C211143E2
:104220000843C5F80C01D5F80C0140F08000C5F832
:104230000C01207910F0010F0BD001214CF250300D
:10424000FDF7E8F80746E86820F4417020F4806044
:10425000E860207910F0020F0DD002214CF25030AE
:10426000FDF7D8F80746D5F80C0120F4417020F48A
:104270008060C5F80C01002F67D0C8F800606BE0C3
:10428000626803202169904348D012F0010F0CD0DE
:10429000E86841F0080320F03000E860E86818435F
:1042A000E860E86840F08000E86012F0020F12D089
:1042B00041F00800D5F80C1121F03001C5F80C11BF
:1042C000D5F80C110843C5F80C01D5F80C0140F0E5
:1042D0008000C5F80C01207910F0010F0BD00121EE
:1042E0004CF25030FDF796F8002818BF0127E86817
:1042F00020F00800E860207910F0020F2CD0022195
:104300004CF25030FDF786F8002818BF0127D5F889
:104310000C0120F00800C5F80C011DE0E86820F051
:104320003000E860D5F80C0120F03000C5F80C0131
:10433000E8680843E860D5F80C010843C5F80C01AB
:10434000A86940F01000A861C5E7D4E90210761C06
:104350000844B0423FF643AF38468AF814B0BDE88F
:10436000F09F000038770024002000520B48C168FD
:1043700041F00101C160C16811F0010F0CD0D0F80B
:104380000C1141F00101C0F80C11D0F80C0110F033
:10439000010F1CBF00207047012070470020005211
:1043A0002DE9F047294E88469146307D012804BF0B
:1043B0000220BDE8F0870120A8F10061B1F5801F5F
:1043C000307534BF012502250027B76129464CF21C
:1043D0005030FDF71FF810B13775BDE8F0871C4C61
:1043E000012D14BFD4F80C01E06840F0020014BFA6
:1043F000C4F80C01E060BFF36F8FBFF34F8FD9F8A3
:10440000002007210120C8F8002009F1040308F169
:10441000040200BF53F804CB401C884242F804CB8E
:10442000F8DDBFF36F8FBFF34F8F29464CF250304A
:10443000FCF7F0FF012D0CBFE168D4F80C1121F05E
:1044400002010CBFE160C4F80C11C5E73877002405
:10445000002000520F48104A1049C36813F0010FA2
:1044600005D042604160C36813F0010F0DD1D0F850
:104470000C3113F0010F0AD0C0F80421C0F8041168
:10448000D0F80C0110F0010F01D00120704700207E
:10449000704700000020005223016745AB89EFCD33
:1044A0001649802810B5164CD1F800C015D0B0F5CB
:1044B000806F18BF10BD4FF080401249E268521C57
:1044C000E260086000231A461946604611F0BAFF00
:1044D000207840F00200207010BD0B494FF00040E2
:1044E000A268521CA260886100231A4619466046E1
:1044F00011F0A8FF207840F00100ECE71C30002408
:10450000F832002418040258000002584FF0B0415D
:10451000D1F88820024208BF704710B5C1F8880062
:10452000FFF7BEFF10BD00000B680022DFF824C2B9
:10453000002B08BF70472DE9F84F01274FF0030B00
:104540004FF00F080B6807FA02F6334000F0FA80CC
:104550004C68022C18BF122C14D14FEAD205D1F8A6
:1045600010E04FEA427400EB8505D5F820904FEA41
:10457000D46408FA04FA0EFA04F429EA0A0944EAAF
:1045800009042C6291F804A04FEA4204D0F800908C
:104590000AF0030A0BFA04F50AFA04FA29EA0509F3
:1045A0004AEA0909C0F80090D1F80490B9F1010F66
:1045B00018BFB9F1020F05D0B9F1110F18BFB9F149
:1045C000120F18D1D0F80890D1F80CA029EA0509EB
:1045D0000AFA04FA4AEA0909C0F80890D0F804A0D7
:1045E00091F804902AEA0606C9F3001909FA02F9BB
:1045F00049EA06064660C668D1F8089026EA05052D
:1046000009FA04F444EA0504C4604C6814F0805FBD
:104610007DD0514C256845F002052560246822F0C4
:10462000030505F1B04504F0020400944FEA8274DA
:10463000D5F808644FEA1474A0F1B04908FA04FAF6
:10464000B9F5003926EA0A0608BF4FF0000948D03C
:10465000A0F1B049B9F5013908BF4FF0010940D0C8
:10466000A0F1B049B9F5023908BF4FF0020938D0BE
:10467000A0F1B049B9F5033908BF4FF0030930D0B4
:10468000A0F1B049B9F5043908BF4FF0040928D0AA
:10469000A0F1B049B9F5053908BF4FF0050920D0A0
:1046A000A0F1B049B9F5063908BF4FF0060918D096
:1046B000A0F1B049B9F5073908BF4FF0070910D08C
:1046C000A0F1B049B9F5083908BF4FF0080908D082
:1046D000A0F1B049B9F509390CBF4FF009094FF005
:1046E0000A0909FA04F43443C5F80844DCF8004028
:1046F0004D6824EA030415F4803F18BF1C43CCF82E
:104700000040DCF804404D6815F4003F00E019E07B
:1047100024EA030418BF1C43CCF804404FF0B04413
:104720004E68256816F4801F25EA030518BF1D434F
:1047300025604E68656816F4001F25EA030518BF5A
:104740001D4365600B68521CD3407FF4FBAEBDE88F
:10475000F88F000080000058F4440258426931EAA2
:10476000020208BF090481617047002A08BF0904DA
:104770008161704701480068000C70470010005CC0
:104780000448054940684FF47A72B0FBF1F000FB31
:1047900002F07047001000E00084D71702488168DB
:1047A000027811448160704728330024032010B53B
:1047B00000F006FB01F038F91049114A114BD1F80D
:1047C00000C0CCF3032C12F80CC00CF01F0C20FA24
:1047D0000CF01860096801F00F01515C01F01F0135
:1047E000C84009490860002000F010F800281CBFEC
:1047F000012010BD00F090FA002010BD18440258AE
:10480000F26E0108203300242433002406490748AF
:104810000B68002243F080730B604260016841F036
:104820000101016010467047FCED00E0001000E05F
:104830002DE9F843674900264FF0A442044600964C
:1048400001250068096812684FF41653B1FBF3F7AD
:1048500000F5F86CCCF3841C05FA0CF10A4208BF91
:10486000BDE8F883016811F0010F1CBFC16811F0A9
:10487000020F2BD0C16821F00201C1602168886855
:10488000A26E10F0800F0CBF42F0010242F0020253
:10489000A26610F4007F03D0A26E42F00402A2666A
:1048A00010F4807F03D0A26E42F00802A26610F4DA
:1048B000806F03D0A26E42F01002A26610F4006F67
:1048C00003D0A06E40F02000A0664D602068016813
:1048D00011F0100F1CBFC16811F0200F06D010217D
:1048E0004160A16C00291CBF2046884720680168F0
:1048F00011F0080F1CBFC16811F0100F07D04FF066
:1049000008014160E16C00291CBF204688474FF038
:1049100004082068016811F0040F1CBFC16811F081
:10492000080F06D0C0F80480216D00291CBF204666
:1049300088472068016811F0020F1CBFC16811F0A0
:10494000040F13D0C16821F03E01C16094F83D000E
:10495000042830D021680220486084F83C6084F844
:104960003D50616C00291CBF20468847A06E00287E
:1049700008BFBDE8F88384F83D802068C16821F055
:104980000101C16020680099491C0091B94203D817
:10499000C16811F0010FF6D184F83C60C06810F0D6
:1049A000010F1ABF032084F83D0084F83D50616D6B
:1049B00051B9BDE8F883A16D84F83C6084F83D509E
:1049C000002908BFBDE8F883204601B0BDE8F043E8
:1049D000084700002033002470B50446FFF7D0FEDE
:1049E000002C054604BF012070BD0026022084F87B
:1049F0003C6084F83D002068C16821F00101C1607D
:104A00002068C06810F0010F11D000BFFFF7B8FE9A
:104A1000401B052806D94021A166032084F83D00EB
:104A2000012070BD2068C06810F0010FEED1D4E9FC
:104A3000030122680843D06004F11400616A90E821
:104A40000D101043E26A43EA0C0C238D40EA0C057A
:104A5000206B0D43DFF8A0C02A43A16810432268F1
:104A60000CEB83431843084310616068B0F1804F3A
:104A700004D12068016941F040410161206846612C
:104A8000606B00280ADA2068416941F480214161A5
:104A90002168A08E404280B2086202E0216880B2A4
:104AA0000862A06B00280CDA2068416941F40021FB
:104AB00041612068218F026A494242EA0141016254
:104AC00004E021680A6A42EA004008626068B0F1C6
:104AD000804F1DBF2168C0B28862206808BF86620F
:104AE000206846620120E66526666666A66684F84A
:104AF0003D00002070BD00000000FCFF00284FF0CA
:104B0000000304BF0120704790F83CC0BCF1010FC6
:104B100004BF022070474DF8044D90F83D404FF01F
:104B2000010C80F83CC0012C18BF012306D00021E5
:104B300080F83C105DF8044B184670470629F6D201
:104B4000DFE801F0030507090B0D4264EFE782641B
:104B5000EDE7C264EBE70265E9E74265E7E78265F6
:104B6000E5E70000002804BF01207047F0B490F88A
:104B70003C40DDF810C0012C02BF0220F0BC7047A1
:104B800090F83D60012580F83C500024012E1FBFA5
:104B900080F83C400220F0BC7047022580F83D5070
:104BA00084660468E56825F00105E56005681F2650
:104BB0002F4F01F07F4407EB0C5C6F69B4F1005F8D
:104BC00063F310076F6103685D69C5F3130545EA78
:104BD0000C0CC3F814C003685E600368DA610368F4
:104BE000996118BF002C01688B6A14BF23F48033CD
:104BF00043F480338B6202F07F41B1F1005F18BF54
:104C0000002901688A6A0CBF42F4003222F40032A3
:104C10008A620268C16D51620168CA6842F0060288
:104C2000CA60C16C21B10168CA6842F01002CA6052
:104C3000016D21B10168CA6842F00802CA60816C46
:104C400021B10168CA6842F02002CA600168CA68DE
:104C500042F00102CA604168B1F1804F04D100689E
:104C6000C16841F48031C160F0BC00207047000091
:104C70000000F0FFDFF858C0F0B443780CF10402F4
:104C8000111DCCF800300378002B04BF0020106009
:104C90001BD043681360057BC37A827A90F80DC0FD
:104CA0002F07847B47EA0367C57B47EAC242467AFF
:104CB00042EA8C42037A42EA444242EA05420078E0
:104CC00042EA062242EA430210430860F0BC704701
:104CD00098ED00E0BFF35F8F044800210368044AA9
:104CE00023F48033036011607047000024ED00E07E
:104CF00094ED00E0074A40F00100054910600868A3
:104D000040F480300860BFF34F8FBFF36F8F704760
:104D100024ED00E094ED00E070470028B8BF704734
:104D2000410900F01F008A00012102F1E02201FA8E
:104D300000F0C2F88001BFF34F8FBFF36F8F704751
:104D40000028B8BF7047410900F01F008A00012108
:104D500002F1E02201FA00F0C2F800017047000001
:104D6000164B30B41B68C3F30223C3F1070CBCF12C
:104D7000040F88BF4FF0040C1C1D072C34BF002308
:104D8000DB1E012404FA0CFC04FA03F5ACF1010467
:104D90002140A5F1010C99400CEA020211430028C0
:104DA0004FEA0111B8BF00F00F0000F1E020ACBFE6
:104DB00080F8001480F8141D30BC70470CED00E042
:104DC000074900F007004FF6FF030A681A4042EA5D
:104DD000002040F0FD7040F08060086070470000E7
:104DE0000CED00E00248016841F4807101607047F9
:104DF0000048025810B500F017FE064A064912682E
:104E0000064BC2F303229A5C02F01F02D0400860F6
:104E100010BD00001844025820330024F26E01082F
:104E20002DE9F05F0025044600682E46FD4FDFF8AF
:104E3000F88310F0006F1FD0606E58B1B0F5801F7E
:104E40000DD0B0F5001F0FD0B0F5401F18BF0125E1
:104E50001ED010E0386840F40030386018E00221BD
:104E6000201D02F0D1FB04E0022104F1240002F035
:104E70006DFC05000CD02E46208810F4807F24D0D5
:104E8000606D05281FD2DFE800F00C11161C1C0015
:104E9000606ED8F8001021F440110843C8F80000F3
:104EA000EAE7386840F4003038600AE00021201D4D
:104EB00002F0AAFB04E0002104F1240002F046FC09
:104EC00005467DB100E001252E46208810F4007FC4
:104ED0002BD0A06D802820D00DDC90B1402815D0BB
:104EE000012521E0606DD8F8001021F0070108438A
:104EF000C8F80000E9E7C02818BFB0F5807FEFD1FF
:104F000011E0386840F4003038600CE004F104002F
:104F10004FF0000102F078FB04E0002104F12400CE
:104F200002F014FC054695B12E462088DFF8FC926D
:104F300010F4806F2FD0D4F8A400B0F5800F22D0E9
:104F40000EDCA0B1B0F5001F16D0012522E0A06D47
:104F5000D8F8001021F4E0710843C8F80000E4E735
:104F6000B0F5C00F18BFB0F5000FEED111E03868F2
:104F700040F4003038600CE004F104004FF0000110
:104F800002F042FB04E0002104F1240002F0DEFB09
:104F9000054685B12E46208810F4006F30D0D4F835
:104FA000A800B0F1007F23D00FDCA8B1B0F1807F62
:104FB00017D0012523E0D4F8A400D9F8001021F47B
:104FC00060010843C9F80000E5E7B0F1407F18BF71
:104FD000B0F1806FEDD111E0386840F400303860F6
:104FE0000CE004F104004FF0000102F00DFB04E0BE
:104FF000002104F1240002F0A9FB05467DB12E46F4
:10500000206810F0007F20D0A06CE0B1102810D0F4
:10501000202813D0302818BF012514D014E0D4F86C
:10502000A800D9F8001021F0E0610843C9F8000099
:10503000E6E7386840F40030386004E00221201DC3
:1050400002F0E2FA05467DB12E46208810F4805F1A
:105050002DD0E06DB0F5005F21D00DDC98B1B0F53A
:10506000805F15D0012521E07148A16C026822F013
:10507000300211430160E8E7B0F5405F18BFB0F5BA
:10508000804FEFD111E0386840F4003038600CE018
:1050900004F104004FF0000102F0B6FA04E0002130
:1050A00004F1240002F052FB054695B12E462088FB
:1050B00010F4005F2CD0206EB0F5403F26D011DCFC
:1050C00020B3B0F5803F14D0B0F5003F18D00125D3
:1050D0001DE0E16DD8F8000020F4E0400843C8F876
:1050E0000000E4E7B0F5802F18BFB0F5A02FEED197
:1050F0000CE004F104004FF0010102F085FA04E035
:10510000012104F1240002F021FB05469DB12E4649
:10511000208810F4804F2DD0D4F8AC00B0F1405F5F
:1051200026D011DC20B3B0F1805F14D0B0F1005F65
:1051300018D001251DE0206ED8F8001021F4E021E0
:105140000843C8F80000E3E7B0F1804F18BFB0F1A2
:10515000A04FEED10CE004F104004FF0010102F089
:1051600053FA04E0012104F1240002F0EFFA0546AD
:105170007DB12E46208810F4004F20D0E06EE0B1C3
:10518000B0F1805F0FD0B0F1005F18BF01250FD0E4
:1051900014E0D4F8AC00D9F8001021F0E041084345
:1051A000C9F80000E6E7386840F40030386004E0F1
:1051B0000121201D02F028FA05467DB12E46206807
:1051C00010F0807F1FD0606CD8B101280FD002286A
:1051D00012D0032818BF012513D013E0E06ED8F8D1
:1051E000001021F040510843C8F80000E7E7386894
:1051F00040F40030386004E00221201D02F004FA7F
:10520000054605B32E46206810F4800F32D0DFF833
:1052100024A0DAF8000040F48070CAF80000FFF71C
:10522000AFFA09E02C44025850440258584402583E
:105230004C440258004802588346DAF8000010F443
:10524000807F08D014E0FE48616C026822F00302FF
:1052500011430160D7E7FFF793FAA0EB0B00642836
:1052600001D9032505E0DAF8000010F4807FF2D0C0
:105270008DB12E462078DFF8CCA310F0010F71D04D
:10528000A06F18286CD059DCA8B308285BD0102870
:1052900060D0012565E0EC48B4F8B020016802F464
:1052A000407001F4407181420CD0E7480168026807
:1052B00021F4407142F480320260026822F48032AC
:1052C00002600160D4F8B000B0F5807F19D1FFF71B
:1052D00057FA8246DC48016811F0020F08BF41F21C
:1052E000883B0ED1FFF74CFAA0EB0A00584503D9D2
:1052F00003252E46BEE733E0D348006810F0020FC6
:10530000F0D0D4F8B0104FF440708843CF481CBFA1
:10531000016821F47C5109D00160CB48B4F8B01089
:105320000268C1F30B0111430160A3E7C84A036897
:1053300002EA111123F47C521143EDE7202818BF33
:105340002828A6D10CE004F104004FF0010102F07E
:105350005BF904E0012104F1240002F0F7F90546AD
:1053600065B12E46207810F0020F1FD0606F06281E
:105370001AD2DFE800F0170C11171717A06FDAF830
:10538000001021F038010843CAF80000EAE70121C3
:10539000201D02F039F904E0012104F1240002F09B
:1053A000D5F905467DB100E001252E46207810F0A4
:1053B000040F20D0D4F8900006281AD2DFE800F0BD
:1053C000170C11171717606FDAF8001021F007019A
:1053D0000843CAF80000E9E70121201D02F014F992
:1053E00004E0012104F1240002F0B0F90546ADB15A
:1053F00000E001252E46207810F0200F2ED0D4F8A2
:105400008C00B0F1405F27D012DC28B3B0F1805F90
:1054100015D0B0F1005F19D001251EE0D4F890003E
:10542000D9F8001021F007010843C9F80000E2E7AD
:10543000B0F1804F18BFB0F1A04FEDD10CE004F1F6
:1054400004004FF0000102F0DFF804E0022104F153
:10545000240002F07BF905469DB12E46207810F01D
:10546000400F2ED0D4F89800B0F5406F27D012DC52
:1054700028B3B0F5806F15D0B0F5006F19D00125B5
:105480001EE0D4F88C00DAF8001021F0E041084367
:10549000CAF80000E2E7B0F5805F18BFB0F5A05F82
:1054A000EDD10CE004F104004FF0000102F0ACF883
:1054B00004E0022104F1240002F048F905469DB100
:1054C0002E46207810F0800F2ED0D4F89C00B0F536
:1054D000C04F27D012DC28B3B0F5005F15D0B0F56F
:1054E000804F19D001251EE0D4F89810D9F800009B
:1054F00020F4E0500843C9F80000E2E7B0F5004F9F
:1055000018BFB0F5204FEDD10CE004F104004FF0CE
:10551000000102F079F804E0022104F1240002F015
:1055200015F9054685B32E46207810F0080F0BD0EC
:10553000D4F88000B0F5805F31D0DAF8001021F4A3
:1055400040510843CAF80000207810F0100F0BD02B
:10555000D4F89400B0F5807F2AD0D9F8001021F457
:1055600040710843C9F80000206810F4002F35D0BE
:10557000D4F8A00028B3B0F5803F27D0B0F5003FA5
:1055800018BF012528D028E0FFE7D4F89C00D9F8FF
:10559000001021F460410843C9F80000C4E702216B
:1055A00004F1240002F0D2F8002818BF0126CBE74E
:1055B000022104F1240002F0C9F8002818BF0126D6
:1055C000D2E70021201D02F01FF804E0022104F1BF
:1055D000240002F0BBF8054695B12E46206810F471
:1055E000802F24D0D4F88400B0F5801F12D0B0F5FD
:1055F000001F14D0B0F5401F18BF012515D015E0CD
:10560000D4F8A000D9F8001021F440310843C9F8BB
:105610000000E3E7386840F40030386005E001211D
:1056200004F1240002F092F80546BDB12E46206830
:1056300010F4803F28D0E06CD0B1B0F5803F09E095
:105640004C440258544402587044025810440258C2
:10565000CFFFFF0018BF01250FD014E0D4F884005D
:10566000DAF8001021F440110843CAF80000DEE720
:10567000386840F40030386004E00221201D01F059
:10568000C3FF0546EDB12E46206810F0005F07D03D
:10569000022104F1240002F059F8002818BF012665
:1056A000206810F4003F1BD0E06FB8B1B0F5807FE8
:1056B00010D0B0F5007F1CBFB0F5407F01250DD0A4
:1056C0000DE03148E16C026822F4803242EA0101C7
:1056D0000160D9E7386840F400303860F5B32E46F1
:1056E000206810F4801F08D0206FD8F8001021F037
:1056F000004141EA0000C8F80000206810F0805F17
:1057000008D02248D4F8B410026822F4804242EA59
:1057100001010160206810F4001F08D0A06ED8F8C5
:10572000001021F0807141EA0000C8F800002068F4
:1057300010F0804F0AD01548016821F40041016043
:105740000168D4F8B82041EA02010160206810F035
:10575000004F09D00C48216D026800E00AE022F0F9
:10576000405242EA01010160002E0CBF00200120DE
:10577000BDE8F09FE06FDAF8001021F440710843B3
:10578000CAF80000ACE700004C440258104402582C
:10579000002804BF012070472DE9F05F8F4F0446B9
:1057A0008846386800F00F0040450AD2386820F07B
:1057B0000F0040EA08003860386800F00F004045EC
:1057C0007DD12078864D10F0040F0AD02069296819
:1057D00001F07001884204D9296821F07001084362
:1057E000286020787F4E10F0080F0AD06069316879
:1057F00001F07001884204D9316821F0700108433A
:105800003060207810F0100F0AD0A069316801F4E0
:10581000E061884204D9316821F4E06108433060D6
:10582000207810F0200F0BD06F48E169026802F079
:105830007002914204D9026822F0700211430160A3
:10584000207810F0020F0AD0E068296801F00F01FB
:10585000884204D9296821F00F0108432860207884
:1058600010F0010F49D06149A0682A6822F47062E3
:10587000104328606068022829D003282CD00968CA
:1058800001282ED011F0040F56D0DFF86491D9F81A
:10589000001021F007010843C9F80000FEF770FF6F
:1058A000D9F800108246606801F03801B1EBC00FF2
:1058B00018BF41F2883B20D0FEF762FF00E03BE0DA
:1058C000A0EB0A00584510D90320BDE8F09F0968F5
:1058D00011F4003FD9D12FE0096811F0007FD4D135
:1058E0002AE011F4807FD0D126E06068D9F800105A
:1058F00001F03801B1EBC00FDED1207810F0020FBB
:105900000AD0E068296801F00F01814204D92968B2
:1059100021F00F0108432860386800F00F0040456F
:105920000DD9386820F00F0040EA08003860386868
:1059300000F00F00404502D00120BDE8F09F207824
:1059400010F0040F0AD02069296801F0700181422B
:1059500004D9296821F0700108432860207810F0EC
:10596000080F0AD06069316801F07001814204D9E2
:10597000316821F0700108433060207810F0100F7A
:105980000AD0A069316801F4E061814204D931682C
:1059900021F4E06108433060207810F0200F0BD034
:1059A0001148E169026802F070028A4204D9026873
:1059B00022F070021143016000F036F829680D4AA8
:1059C000C1F30321515C01F01F01C8400A4908607E
:1059D0000020BDE8F05FFEF719BF00000020005274
:1059E000184402581C4402582044025800440258EB
:1059F00010440258F26E01082033002410B5FFF75E
:105A0000F9F9064A06491268064B02F00F029A5C41
:105A100002F01F02D040086010BD00001844025878
:105A200024330024F26E01085E4930B45E480968F0
:105A30005E4B11F038020CD00111082A06D0102A52
:105A400002BF5B4830BC7047182A0ED030BC0846F5
:105A50007047196811F0200F04BF30BC70471968F7
:105A600030BCC1F3C101C84070475249524C01F1EA
:105A7000040C0A680968DCF80050246802F0030C82
:105A800005F00102C1F30511C4F3CC04002914FB95
:105A900002F200EE102AF8EE400A02BF002030BCED
:105AA0007047BCF1000F9FED451A454AB7EE000A5A
:105AB0001BD0DFED441ABCF1010F02D0BCF1020F84
:105AC0004AD002EE101A1068F8EE422AC0F308001D
:105AD00081EEA22A01EE900AF8EE611A40EE811AD8
